{"abi":[{"type":"constructor","inputs":[],"stateMutability":"nonpayable"},{"type":"receive","stateMutability":"payable"},{"type":"function","name":"agentDecisionCount","inputs":[{"name":"","type":"address","internalType":"address"}],"outputs":[{"name":"","type":"uint256","internalType":"uint256"}],"stateMutability":"view"},{"type":"function","name":"agentDecisions","inputs":[{"name":"","type":"address","internalType":"address"},{"name":"","type":"uint256","internalType":"uint256"}],"outputs":[{"name":"","type":"string","internalType":"string"}],"stateMutability":"view"},{"type":"function","name":"allDecisionIds","inputs":[{"name":"","type":"uint256","internalType":"uint256"}],"outputs":[{"name":"","type":"string","internalType":"string"}],"stateMutability":"view"},{"type":"function","name":"authorizedAgents","inputs":[{"name":"","type":"address","internalType":"address"}],"outputs":[{"name":"","type":"bool","internalType":"bool"}],"stateMutability":"view"},{"type":"function","name":"decisions","inputs":[{"name":"","type":"string","internalType":"string"}],"outputs":[{"name":"agent","type":"address","internalType":"address"},{"name":"decisionId","type":"string","internalType":"string"},{"name":"actionSummary","type":"string","internalType":"string"},{"name":"rationaleCID","type":"string","internalType":"string"},{"name":"timestamp","type":"uint256","internalType":"uint256"},{"name":"txRef","type":"string","internalType":"string"},{"name":"status","type":"uint8","internalType":"enum ArcBotDecisionLogger.DecisionStatus"},{"name":"totalAmount","type":"uint256","internalType":"uint256"},{"name":"riskScore","type":"uint8","internalType":"uint8"}],"stateMutability":"view"},{"type":"function","name":"getAgentDecisions","inputs":[{"name":"agent","type":"address","internalType":"address"}],"outputs":[{"name":"","type":"string[]","internalType":"string[]"}],"stateMutability":"view"},{"type":"function","name":"getAgentStats","inputs":[{"name":"agent","type":"address","internalType":"address"}],"outputs":[{"name":"totalDecisionsCount","type":"uint256","internalType":"uint256"},{"name":"totalVolume","type":"uint256","internalType":"uint256"},{"name":"isAuthorized","type":"bool","internalType":"bool"}],"stateMutability":"view"},{"type":"function","name":"getDecision","inputs":[{"name":"decisionId","type":"string","internalType":"string"}],"outputs":[{"name":"","type":"tuple","internalType":"struct ArcBotDecisionLogger.Decision","components":[{"name":"agent","type":"address","internalType":"address"},{"name":"decisionId","type":"string","internalType":"string"},{"name":"actionSummary","type":"string","internalType":"string"},{"name":"rationaleCID","type":"string","internalType":"string"},{"name":"timestamp","type":"uint256","internalType":"uint256"},{"name":"txRef","type":"string","internalType":"string"},{"name":"status","type":"uint8","internalType":"enum ArcBotDecisionLogger.DecisionStatus"},{"name":"totalAmount","type":"uint256","internalType":"uint256"},{"name":"riskScore","type":"uint8","internalType":"uint8"}]}],"stateMutability":"view"},{"type":"function","name":"getTotalDecisions","inputs":[],"outputs":[{"name":"","type":"uint256","internalType":"uint256"}],"stateMutability":"view"},{"type":"function","name":"logDecision","inputs":[{"name":"decisionId","type":"string","internalType":"string"},{"name":"actionSummary","type":"string","internalType":"string"},{"name":"rationaleCID","type":"string","internalType":"string"},{"name":"txRef","type":"string","internalType":"string"},{"name":"totalAmount","type":"uint256","internalType":"uint256"},{"name":"riskScore","type":"uint8","internalType":"uint8"}],"outputs":[{"name":"","type":"bool","internalType":"bool"}],"stateMutability":"nonpayable"},{"type":"function","name":"owner","inputs":[],"outputs":[{"name":"","type":"address","internalType":"address"}],"stateMutability":"view"},{"type":"function","name":"paused","inputs":[],"outputs":[{"name":"","type":"bool","internalType":"bool"}],"stateMutability":"view"},{"type":"function","name":"setAgentAuthorization","inputs":[{"name":"agent","type":"address","internalType":"address"},{"name":"authorized","type":"bool","internalType":"bool"}],"outputs":[],"stateMutability":"nonpayable"},{"type":"function","name":"setPaused","inputs":[{"name":"_paused","type":"bool","internalType":"bool"}],"outputs":[],"stateMutability":"nonpayable"},{"type":"function","name":"totalDecisions","inputs":[],"outputs":[{"name":"","type":"uint256","internalType":"uint256"}],"stateMutability":"view"},{"type":"function","name":"updateDecisionStatus","inputs":[{"name":"decisionId","type":"string","internalType":"string"},{"name":"newStatus","type":"uint8","internalType":"enum ArcBotDecisionLogger.DecisionStatus"},{"name":"txRef","type":"string","internalType":"string"}],"outputs":[{"name":"","type":"bool","internalType":"bool"}],"stateMutability":"nonpayable"},{"type":"event","name":"AgentAuthorized","inputs":[{"name":"agent","type":"address","indexed":true,"internalType":"address"},{"name":"authorized","type":"bool","indexed":false,"internalType":"bool"}],"anonymous":false},{"type":"event","name":"DecisionLogged","inputs":[{"name":"agent","type":"address","indexed":true,"internalType":"address"},{"name":"decisionId","type":"string","indexed":true,"internalType":"string"},{"name":"actionSummary","type":"string","indexed":false,"internalType":"string"},{"name":"totalAmount","type":"uint256","indexed":false,"internalType":"uint256"},{"name":"riskScore","type":"uint8","indexed":false,"internalType":"uint8"},{"name":"timestamp","type":"uint256","indexed":false,"internalType":"uint256"}],"anonymous":false},{"type":"event","name":"DecisionStatusUpdated","inputs":[{"name":"decisionId","type":"string","indexed":true,"internalType":"string"},{"name":"oldStatus","type":"uint8","indexed":false,"internalType":"enum ArcBotDecisionLogger.DecisionStatus"},{"name":"newStatus","type":"uint8","indexed":false,"internalType":"enum ArcBotDecisionLogger.DecisionStatus"},{"name":"txRef","type":"string","indexed":false,"internalType":"string"}],"anonymous":false},{"type":"error","name":"ContractPaused","inputs":[]},{"type":"error","name":"DecisionAlreadyExists","inputs":[{"name":"decisionId","type":"string","internalType":"string"}]},{"type":"error","name":"DecisionNotFound","inputs":[{"name":"decisionId","type":"string","internalType":"string"}]},{"type":"error","name":"InvalidDecisionId","inputs":[]},{"type":"error","name":"InvalidRiskScore","inputs":[]},{"type":"error","name":"NotOwner","inputs":[]},{"type":"error","name":"UnauthorizedAgent","inputs":[{"name":"agent","type":"address","internalType":"address"}]}],"bytecode":{"object":"0x6080604052348015600e575f5ffd5b505f80546001600160a01b03191633908117825580825260046020908152604092839020805460ff19166001908117909155925192835290917f1b06338d0edf2ba8ccee31e466ab37b376418209af6a85c55c51e89a51e33bde910160405180910390a2611a478061007f5f395ff3fe6080604052600436106100f2575f3560e01c8063711242cc11610087578063b5695b3811610057578063b5695b38146102de578063e4da9a011461031a578063ee06edbb14610346578063efd760651461035a575f5ffd5b8063711242cc14610236578063738a77ae146102555780637d4f6050146102745780638da5cb5b146102a8575f5ffd5b80632236fafa116100c25780632236fafa14610190578063294d24f6146101bc5780634313d5ab146101db5780635c975abb14610207575f5ffd5b80630911e864146100fd5780630c96a61a1461011e5780631121212c1461014657806316c38b3c14610171575f5ffd5b366100f957005b5f5ffd5b348015610108575f5ffd5b5061011c6101173660046112e6565b610388565b005b348015610129575f5ffd5b5061013360065481565b6040519081526020015b60405180910390f35b348015610151575f5ffd5b50610133610160366004611317565b60056020525f908152604090205481565b34801561017c575f5ffd5b5061011c61018b366004611337565b610463565b34801561019b575f5ffd5b506101af6101aa366004611350565b6104aa565b60405161013d91906113a6565b3480156101c7575f5ffd5b506101af6101d63660046113b8565b61055b565b3480156101e6575f5ffd5b506101fa6101f536600461146e565b610582565b60405161013d91906114dc565b348015610212575f5ffd5b505f5461022690600160a01b900460ff1681565b604051901515815260200161013d565b348015610241575f5ffd5b506102266102503660046115c4565b6108b0565b348015610260575f5ffd5b5061022661026f366004611695565b610bd2565b34801561027f575f5ffd5b5061029361028e36600461146e565b610d90565b60405161013d9998979695949392919061170e565b3480156102b3575f5ffd5b505f546102c6906001600160a01b031681565b6040516001600160a01b03909116815260200161013d565b3480156102e9575f5ffd5b506102fd6102f8366004611317565b61100f565b60408051938452602084019290925215159082015260600161013d565b348015610325575f5ffd5b50610339610334366004611317565b611170565b60405161013d91906117a0565b348015610351575f5ffd5b50600654610133565b348015610365575f5ffd5b50610226610374366004611317565b60046020525f908152604090205460ff1681565b5f546001600160a01b031633146103b2576040516330cd747160e01b815260040160405180910390fd5b6001600160a01b0382166104055760405162461bcd60e51b8152602060048201526015602482015274496e76616c6964206167656e74206164647265737360581b60448201526064015b60405180910390fd5b6001600160a01b0382165f81815260046020908152604091829020805460ff191685151590811790915591519182527f1b06338d0edf2ba8ccee31e466ab37b376418209af6a85c55c51e89a51e33bde910160405180910390a25050565b5f546001600160a01b0316331461048d576040516330cd747160e01b815260040160405180910390fd5b5f8054911515600160a01b0260ff60a01b19909216919091179055565b6002602052815f5260405f2081815481106104c3575f80fd5b905f5260205f20015f915091505080546104dc90611803565b80601f016020809104026020016040519081016040528092919081815260200182805461050890611803565b80156105535780601f1061052a57610100808354040283529160200191610553565b820191905f5260205f20905b81548152906001019060200180831161053657829003601f168201915b505050505081565b6003818154811061056a575f80fd5b905f5260205f20015f9150905080546104dc90611803565b61058a61125a565b8180515f036105ac576040516303eaac0960e51b815260040160405180910390fd5b5f6001846040516105bd9190611835565b908152604080519182900360209081018320610120840190925281546001600160a01b03168352600182018054918401916105f790611803565b80601f016020809104026020016040519081016040528092919081815260200182805461062390611803565b801561066e5780601f106106455761010080835404028352916020019161066e565b820191905f5260205f20905b81548152906001019060200180831161065157829003601f168201915b5050505050815260200160028201805461068790611803565b80601f01602080910402602001604051908101604052809291908181526020018280546106b390611803565b80156106fe5780601f106106d5576101008083540402835291602001916106fe565b820191905f5260205f20905b8154815290600101906020018083116106e157829003601f168201915b5050505050815260200160038201805461071790611803565b80601f016020809104026020016040519081016040528092919081815260200182805461074390611803565b801561078e5780601f106107655761010080835404028352916020019161078e565b820191905f5260205f20905b81548152906001019060200180831161077157829003601f168201915b50505050508152602001600482015481526020016005820180546107b190611803565b80601f01602080910402602001604051908101604052809291908181526020018280546107dd90611803565b80156108285780601f106107ff57610100808354040283529160200191610828565b820191905f5260205f20905b81548152906001019060200180831161080b57829003601f168201915b5050509183525050600682015460209091019060ff16600381111561084f5761084f6114a8565b6003811115610860576108606114a8565b8152600782015460208083019190915260089092015460ff16604090910152810151519091505f036108a7578360405163beca0c3360e01b81526004016103fc91906113a6565b91505b50919050565b5f8054600160a01b900460ff16156108db5760405163ab35696f60e01b815260040160405180910390fd5b335f9081526004602052604090205460ff1661090c57604051631a7ed88160e21b81523360048201526024016103fc565b8680515f0361092e576040516303eaac0960e51b815260040160405180910390fd5b60018860405161093e9190611835565b9081526020016040518091039020600101805461095a90611803565b15905061097c5787604051634f9975fd60e01b81526004016103fc91906113a6565b60648360ff1611156109a1576040516330cdce3160e21b815260040160405180910390fd5b6040805161012081018252338152602081018a90529081018890526060810187905242608082015260a0810186905260c081015f81526020018581526020018460ff168152506001896040516109f79190611835565b90815260405160209181900382019020825181546001600160a01b0319166001600160a01b03909116178155908201516001820190610a369082611897565b5060408201516002820190610a4b9082611897565b5060608201516003820190610a609082611897565b506080820151600482015560a08201516005820190610a7f9082611897565b5060c082015160068201805460ff19166001836003811115610aa357610aa36114a8565b021790555060e08201516007820155610100909101516008909101805460ff191660ff909216919091179055335f90815260026020908152604082208054600181018255908352912001610af78982611897565b50600380546001810182555f919091527fc2575a0e9e593c00f959f8c92f12db2869c3395a3b0502d05e2516446f71f85b01610b338982611897565b50335f908152600560205260408120805491610b4e83611966565b909155505060068054905f610b6283611966565b919050555087604051610b759190611835565b6040518091039020336001600160a01b03167fde45f9ccbbcfaaa791844d31be8c6d846ef3930a73c885b84862057a471022b589878742604051610bbc949392919061197e565b60405180910390a3506001979650505050505050565b5f8054600160a01b900460ff1615610bfd5760405163ab35696f60e01b815260040160405180910390fd5b335f9081526004602052604090205460ff16610c2e57604051631a7ed88160e21b81523360048201526024016103fc565b8380515f03610c50576040516303eaac0960e51b815260040160405180910390fd5b5f600186604051610c619190611835565b90815260200160405180910390209050806001018054610c8090611803565b90505f03610ca3578560405163beca0c3360e01b81526004016103fc91906113a6565b80546001600160a01b03163314610cf15760405162461bcd60e51b81526020600482015260126024820152712737ba103232b1b4b9b4b7b71037bbb732b960711b60448201526064016103fc565b60068101805460ff811691879160ff19166001836003811115610d1657610d166114a8565b0217905550845115610d325760058201610d308682611897565b505b86604051610d409190611835565b60405180910390207f4360047cb6bf031664ce76494a7be98ee73fb4573af8ca6cdc705ec632ae6daa828888604051610d7b939291906119af565b60405180910390a25060019695505050505050565b805160208183018101805160018083529383019290940191909120929052815490820180546001600160a01b039092169291610dcb90611803565b80601f0160208091040260200160405190810160405280929190818152602001828054610df790611803565b8015610e425780601f10610e1957610100808354040283529160200191610e42565b820191905f5260205f20905b815481529060010190602001808311610e2557829003601f168201915b505050505090806002018054610e5790611803565b80601f0160208091040260200160405190810160405280929190818152602001828054610e8390611803565b8015610ece5780601f10610ea557610100808354040283529160200191610ece565b820191905f5260205f20905b815481529060010190602001808311610eb157829003601f168201915b505050505090806003018054610ee390611803565b80601f0160208091040260200160405190810160405280929190818152602001828054610f0f90611803565b8015610f5a5780601f10610f3157610100808354040283529160200191610f5a565b820191905f5260205f20905b815481529060010190602001808311610f3d57829003601f168201915b505050505090806004015490806005018054610f7590611803565b80601f0160208091040260200160405190810160405280929190818152602001828054610fa190611803565b8015610fec5780601f10610fc357610100808354040283529160200191610fec565b820191905f5260205f20905b815481529060010190602001808311610fcf57829003601f168201915b5050505060068301546007840154600890940154929360ff918216939092501689565b6001600160a01b0381165f90815260056020908152604080832054600483528184205460028452828520805484518187028101870190955280855292959460ff9092169385939092849084015b82821015611104578382905f5260205f2001805461107990611803565b80601f01602080910402602001604051908101604052809291908181526020018280546110a590611803565b80156110f05780601f106110c7576101008083540402835291602001916110f0565b820191905f5260205f20905b8154815290600101906020018083116110d357829003601f168201915b50505050508152602001906001019061105c565b509293505f925050505b815181101561116757600182828151811061112b5761112b6119e4565b60200260200101516040516111409190611835565b9081526020016040518091039020600701548461115d91906119f8565b935060010161110e565b50509193909250565b6001600160a01b0381165f908152600260209081526040808320805482518185028101850190935280835260609492939192909184015b8282101561124f578382905f5260205f200180546111c490611803565b80601f01602080910402602001604051908101604052809291908181526020018280546111f090611803565b801561123b5780601f106112125761010080835404028352916020019161123b565b820191905f5260205f20905b81548152906001019060200180831161121e57829003601f168201915b5050505050815260200190600101906111a7565b505050509050919050565b6040518061012001604052805f6001600160a01b031681526020016060815260200160608152602001606081526020015f8152602001606081526020015f60038111156112a9576112a96114a8565b81525f6020820181905260409091015290565b80356001600160a01b03811681146112d2575f5ffd5b919050565b803580151581146112d2575f5ffd5b5f5f604083850312156112f7575f5ffd5b611300836112bc565b915061130e602084016112d7565b90509250929050565b5f60208284031215611327575f5ffd5b611330826112bc565b9392505050565b5f60208284031215611347575f5ffd5b611330826112d7565b5f5f60408385031215611361575f5ffd5b61136a836112bc565b946020939093013593505050565b5f81518084528060208401602086015e5f602082860101526020601f19601f83011685010191505092915050565b602081525f6113306020830184611378565b5f602082840312156113c8575f5ffd5b5035919050565b634e487b7160e01b5f52604160045260245ffd5b5f82601f8301126113f2575f5ffd5b813567ffffffffffffffff81111561140c5761140c6113cf565b604051601f8201601f19908116603f0116810167ffffffffffffffff8111828210171561143b5761143b6113cf565b604052818152838201602001851015611452575f5ffd5b816020850160208301375f918101602001919091529392505050565b5f6020828403121561147e575f5ffd5b813567ffffffffffffffff811115611494575f5ffd5b6114a0848285016113e3565b949350505050565b634e487b7160e01b5f52602160045260245ffd5b600481106114d857634e487b7160e01b5f52602160045260245ffd5b9052565b602081526114f66020820183516001600160a01b03169052565b5f60208301516101206040840152611512610140840182611378565b90506040840151601f1984830301606085015261152f8282611378565b9150506060840151601f1984830301608085015261154d8282611378565b915050608084015160a084015260a0840151601f198483030160c08501526115758282611378565b91505060c084015161158a60e08501826114bc565b5060e08401516101008401526101008401516115ac61012085018260ff169052565b509392505050565b803560ff811681146112d2575f5ffd5b5f5f5f5f5f5f60c087890312156115d9575f5ffd5b863567ffffffffffffffff8111156115ef575f5ffd5b6115fb89828a016113e3565b965050602087013567ffffffffffffffff811115611617575f5ffd5b61162389828a016113e3565b955050604087013567ffffffffffffffff81111561163f575f5ffd5b61164b89828a016113e3565b945050606087013567ffffffffffffffff811115611667575f5ffd5b61167389828a016113e3565b9350506080870135915061168960a088016115b4565b90509295509295509295565b5f5f5f606084860312156116a7575f5ffd5b833567ffffffffffffffff8111156116bd575f5ffd5b6116c9868287016113e3565b9350506020840135600481106116dd575f5ffd5b9150604084013567ffffffffffffffff8111156116f8575f5ffd5b611704868287016113e3565b9150509250925092565b6001600160a01b038a168152610120602082018190525f906117329083018b611378565b8281036040840152611744818b611378565b90508281036060840152611758818a611378565b905087608084015282810360a08401526117728188611378565b91505061178260c08301866114bc565b8360e083015260ff83166101008301529a9950505050505050505050565b5f602082016020835280845180835260408501915060408160051b8601019250602086015f5b828110156117f757603f198786030184526117e2858351611378565b945060209384019391909101906001016117c6565b50929695505050505050565b600181811c9082168061181757607f821691505b6020821081036108aa57634e487b7160e01b5f52602260045260245ffd5b5f82518060208501845e5f920191825250919050565b601f82111561189257805f5260205f20601f840160051c810160208510156118705750805b601f840160051c820191505b8181101561188f575f815560010161187c565b50505b505050565b815167ffffffffffffffff8111156118b1576118b16113cf565b6118c5816118bf8454611803565b8461184b565b6020601f8211600181146118f7575f83156118e05750848201515b5f19600385901b1c1916600184901b17845561188f565b5f84815260208120601f198516915b828110156119265787850151825560209485019460019092019101611906565b508482101561194357868401515f19600387901b60f8161c191681555b50505050600190811b01905550565b634e487b7160e01b5f52601160045260245ffd5b5f6001820161197757611977611952565b5060010190565b608081525f6119906080830187611378565b60208301959095525060ff929092166040830152606090910152919050565b6119b981856114bc565b6119c660208201846114bc565b606060408201525f6119db6060830184611378565b95945050505050565b634e487b7160e01b5f52603260045260245ffd5b80820180821115611a0b57611a0b611952565b9291505056fea26469706673582212205dcdc4cff244282d09e971b4520d182bdd6a616c7b6c115c422a2bfeb536388064736f6c634300081e0033","linkReferences":{}},"methodIdentifiers":{"agentDecisionCount(address)":"1121212c","agentDecisions(address,uint256)":"2236fafa","allDecisionIds(uint256)":"294d24f6","authorizedAgents(address)":"efd76065","decisions(string)":"7d4f6050","getAgentDecisions(address)":"e4da9a01","getAgentStats(address)":"b5695b38","getDecision(string)":"4313d5ab","getTotalDecisions()":"ee06edbb","logDecision(string,string,string,string,uint256,uint8)":"711242cc","owner()":"8da5cb5b","paused()":"5c975abb","setAgentAuthorization(address,bool)":"0911e864","setPaused(bool)":"16c38b3c","totalDecisions()":"0c96a61a","updateDecisionStatus(string,uint8,string)":"738a77ae"},"id":0}